{
  "contractName": "Kubay1",
  "abi": [
    {
      "constant": true,
      "inputs": [],
      "name": "productIndex",
      "outputs": [
        {
          "name": "",
          "type": "uint256"
        }
      ],
      "payable": false,
      "stateMutability": "view",
      "type": "function"
    },
    {
      "constant": false,
      "inputs": [
        {
          "name": "_productId",
          "type": "uint256"
        },
        {
          "name": "_bid",
          "type": "bytes32"
        }
      ],
      "name": "bid",
      "outputs": [
        {
          "name": "",
          "type": "bool"
        }
      ],
      "payable": true,
      "stateMutability": "payable",
      "type": "function"
    },
    {
      "constant": false,
      "inputs": [
        {
          "name": "_productId",
          "type": "uint256"
        },
        {
          "name": "_amount",
          "type": "string"
        },
        {
          "name": "_secret",
          "type": "string"
        }
      ],
      "name": "revealBid",
      "outputs": [],
      "payable": false,
      "stateMutability": "nonpayable",
      "type": "function"
    },
    {
      "constant": true,
      "inputs": [
        {
          "name": "_productId",
          "type": "uint256"
        }
      ],
      "name": "highestBidderInfo",
      "outputs": [
        {
          "name": "",
          "type": "address"
        },
        {
          "name": "",
          "type": "uint256"
        },
        {
          "name": "",
          "type": "uint256"
        }
      ],
      "payable": false,
      "stateMutability": "view",
      "type": "function"
    },
    {
      "constant": true,
      "inputs": [
        {
          "name": "_productId",
          "type": "uint256"
        }
      ],
      "name": "totalBids",
      "outputs": [
        {
          "name": "",
          "type": "uint256"
        }
      ],
      "payable": false,
      "stateMutability": "view",
      "type": "function"
    },
    {
      "constant": false,
      "inputs": [
        {
          "name": "_game_name",
          "type": "string"
        },
        {
          "name": "_item_name",
          "type": "string"
        },
        {
          "name": "_game_money",
          "type": "uint256"
        },
        {
          "name": "_imageLink",
          "type": "string"
        },
        {
          "name": "_descLink",
          "type": "string"
        },
        {
          "name": "_auctionStartTime",
          "type": "uint256"
        },
        {
          "name": "_auctionEndTime",
          "type": "uint256"
        },
        {
          "name": "_startPrice",
          "type": "uint256"
        }
      ],
      "name": "addProductToStore",
      "outputs": [],
      "payable": false,
      "stateMutability": "nonpayable",
      "type": "function"
    },
    {
      "constant": true,
      "inputs": [
        {
          "name": "_productId",
          "type": "uint256"
        }
      ],
      "name": "getProduct",
      "outputs": [
        {
          "name": "",
          "type": "uint256"
        },
        {
          "name": "",
          "type": "string"
        },
        {
          "name": "",
          "type": "string"
        },
        {
          "name": "",
          "type": "uint256"
        },
        {
          "name": "",
          "type": "string"
        },
        {
          "name": "",
          "type": "string"
        },
        {
          "name": "",
          "type": "uint256"
        },
        {
          "name": "",
          "type": "uint256"
        },
        {
          "name": "",
          "type": "uint256"
        },
        {
          "name": "",
          "type": "uint8"
        }
      ],
      "payable": false,
      "stateMutability": "view",
      "type": "function"
    },
    {
      "constant": false,
      "inputs": [],
      "name": "Kubaystore",
      "outputs": [],
      "payable": false,
      "stateMutability": "nonpayable",
      "type": "function"
    }
  ],
  "bytecode": "0x608060405234801561001057600080fd5b506120b6806100206000396000f30060806040526004361061008e576000357c0100000000000000000000000000000000000000000000000000000000900463ffffffff16806328e3d1901461009357806380d912b8146100d45780639805a3c0146100eb578063b9db15b41461024e578063c897d5a614610470578063ce818ea91461049b578063ea1591bb14610516578063f85f196e1461055c575b600080fd5b34801561009f57600080fd5b506100be60048036038101908080359060200190929190505050610615565b6040518082815260200191505060405180910390f35b3480156100e057600080fd5b506100e9610a1a565b005b3480156100f757600080fd5b5061024c600480360381019080803590602001908201803590602001908080601f0160208091040260200160405190810160405280939291908181526020018383808284378201915050505050509192919290803590602001908201803590602001908080601f016020809104026020016040519081016040528093929190818152602001838380828437820191505050505050919291929080359060200190929190803590602001908201803590602001908080601f0160208091040260200160405190810160405280939291908181526020018383808284378201915050505050509192919290803590602001908201803590602001908080601f0160208091040260200160405190810160405280939291908181526020018383808284378201915050505050509192919290803590602001909291908035906020019092919080359060200190929190505050610a23565b005b34801561025a57600080fd5b5061027960048036038101908080359060200190929190505050610cbf565b604051808b815260200180602001806020018a815260200180602001806020018981526020018881526020018781526020018660028111156102b757fe5b60ff16815260200185810385528e818151815260200191508051906020019080838360005b838110156102f75780820151818401526020810190506102dc565b50505050905090810190601f1680156103245780820380516001836020036101000a031916815260200191505b5085810384528d818151815260200191508051906020019080838360005b8381101561035d578082015181840152602081019050610342565b50505050905090810190601f16801561038a5780820380516001836020036101000a031916815260200191505b5085810383528b818151815260200191508051906020019080838360005b838110156103c35780820151818401526020810190506103a8565b50505050905090810190601f1680156103f05780820380516001836020036101000a031916815260200191505b5085810382528a818151815260200191508051906020019080838360005b8381101561042957808201518184015260208101905061040e565b50505050905090810190601f1680156104565780820380516001836020036101000a031916815260200191505b509e50505050505050505050505050505060405180910390f35b34801561047c57600080fd5b50610485611126565b6040518082815260200191505060405180910390f35b3480156104a757600080fd5b506104c66004803603810190808035906020019092919050505061112c565b604051808473ffffffffffffffffffffffffffffffffffffffff1673ffffffffffffffffffffffffffffffffffffffff168152602001838152602001828152602001935050505060405180910390f35b610542600480360381019080803590602001909291908035600019169060200190929190505050611546565b604051808215151515815260200191505060405180910390f35b34801561056857600080fd5b5061061360048036038101908080359060200190929190803590602001908201803590602001908080601f0160208091040260200160405190810160405280939291908181526020018383808284378201915050505050509192919290803590602001908201803590602001908080601f01602080910402602001604051908101604052809392919081815260200183838082843782019150505050505091929192905050506117d9565b005b600061061f611f13565b600160006002600086815260200190815260200160002060009054906101000a900473ffffffffffffffffffffffffffffffffffffffff1673ffffffffffffffffffffffffffffffffffffffff1673ffffffffffffffffffffffffffffffffffffffff16815260200190815260200160002060008481526020019081526020016000206101c0604051908101604052908160008201548152602001600182018054600181600116156101000203166002900480601f0160208091040260200160405190810160405280929190818152602001828054600181600116156101000203166002900480156107525780601f1061072757610100808354040283529160200191610752565b820191906000526020600020905b81548152906001019060200180831161073557829003601f168201915b50505050508152602001600282018054600181600116156101000203166002900480601f0160208091040260200160405190810160405280929190818152602001828054600181600116156101000203166002900480156107f45780601f106107c9576101008083540402835291602001916107f4565b820191906000526020600020905b8154815290600101906020018083116107d757829003601f168201915b5050505050815260200160038201548152602001600482018054600181600116156101000203166002900480601f0160208091040260200160405190810160405280929190818152602001828054600181600116156101000203166002900480156108a05780601f10610875576101008083540402835291602001916108a0565b820191906000526020600020905b81548152906001019060200180831161088357829003601f168201915b50505050508152602001600582018054600181600116156101000203166002900480601f0160208091040260200160405190810160405280929190818152602001828054600181600116156101000203166002900480156109425780601f1061091757610100808354040283529160200191610942565b820191906000526020600020905b81548152906001019060200180831161092557829003601f168201915b505050505081526020016006820154815260200160078201548152602001600882015481526020016009820160009054906101000a900473ffffffffffffffffffffffffffffffffffffffff1673ffffffffffffffffffffffffffffffffffffffff1673ffffffffffffffffffffffffffffffffffffffff168152602001600a8201548152602001600b8201548152602001600c8201548152602001600d820160009054906101000a900460ff1660028111156109fb57fe5b6002811115610a0657fe5b815250509050806101800151915050919050565b60008081905550565b610a2b611f13565b8284101515610a3957600080fd5b600160008082825401925050819055506101c06040519081016040528060005481526020018a8152602001898152602001888152602001878152602001868152602001858152602001848152602001838152602001600073ffffffffffffffffffffffffffffffffffffffff16815260200160008152602001600081526020016000815260200160006002811115610acd57fe5b815250905080600160003373ffffffffffffffffffffffffffffffffffffffff1673ffffffffffffffffffffffffffffffffffffffff168152602001908152602001600020600080548152602001908152602001600020600082015181600001556020820151816001019080519060200190610b4a929190611fa4565b506040820151816002019080519060200190610b67929190611fa4565b50606082015181600301556080820151816004019080519060200190610b8e929190611fa4565b5060a0820151816005019080519060200190610bab929190611fa4565b5060c0820151816006015560e0820151816007015561010082015181600801556101208201518160090160006101000a81548173ffffffffffffffffffffffffffffffffffffffff021916908373ffffffffffffffffffffffffffffffffffffffff16021790555061014082015181600a015561016082015181600b015561018082015181600c01556101a082015181600d0160006101000a81548160ff02191690836002811115610c5957fe5b021790555090505033600260008054815260200190815260200160002060006101000a81548173ffffffffffffffffffffffffffffffffffffffff021916908373ffffffffffffffffffffffffffffffffffffffff160217905550505050505050505050565b60006060806000606080600080600080610cd7611f13565b60016000600260008f815260200190815260200160002060009054906101000a900473ffffffffffffffffffffffffffffffffffffffff1673ffffffffffffffffffffffffffffffffffffffff1673ffffffffffffffffffffffffffffffffffffffff16815260200190815260200160002060008d81526020019081526020016000206101c0604051908101604052908160008201548152602001600182018054600181600116156101000203166002900480601f016020809104026020016040519081016040528092919081815260200182805460018160011615610100020316600290048015610e0a5780601f10610ddf57610100808354040283529160200191610e0a565b820191906000526020600020905b815481529060010190602001808311610ded57829003601f168201915b50505050508152602001600282018054600181600116156101000203166002900480601f016020809104026020016040519081016040528092919081815260200182805460018160011615610100020316600290048015610eac5780601f10610e8157610100808354040283529160200191610eac565b820191906000526020600020905b815481529060010190602001808311610e8f57829003601f168201915b5050505050815260200160038201548152602001600482018054600181600116156101000203166002900480601f016020809104026020016040519081016040528092919081815260200182805460018160011615610100020316600290048015610f585780601f10610f2d57610100808354040283529160200191610f58565b820191906000526020600020905b815481529060010190602001808311610f3b57829003601f168201915b50505050508152602001600582018054600181600116156101000203166002900480601f016020809104026020016040519081016040528092919081815260200182805460018160011615610100020316600290048015610ffa5780601f10610fcf57610100808354040283529160200191610ffa565b820191906000526020600020905b815481529060010190602001808311610fdd57829003601f168201915b505050505081526020016006820154815260200160078201548152602001600882015481526020016009820160009054906101000a900473ffffffffffffffffffffffffffffffffffffffff1673ffffffffffffffffffffffffffffffffffffffff1673ffffffffffffffffffffffffffffffffffffffff168152602001600a8201548152602001600b8201548152602001600c8201548152602001600d820160009054906101000a900460ff1660028111156110b357fe5b60028111156110be57fe5b815250509050806000015181602001518260400151836060015184608001518560a001518660c001518760e00151886101000151896101a001518898508797508595508494509a509a509a509a509a509a509a509a509a509a50509193959799509193959799565b60005481565b6000806000611139611f13565b600160006002600088815260200190815260200160002060009054906101000a900473ffffffffffffffffffffffffffffffffffffffff1673ffffffffffffffffffffffffffffffffffffffff1673ffffffffffffffffffffffffffffffffffffffff16815260200190815260200160002060008681526020019081526020016000206101c0604051908101604052908160008201548152602001600182018054600181600116156101000203166002900480601f01602080910402602001604051908101604052809291908181526020018280546001816001161561010002031660029004801561126c5780601f106112415761010080835404028352916020019161126c565b820191906000526020600020905b81548152906001019060200180831161124f57829003601f168201915b50505050508152602001600282018054600181600116156101000203166002900480601f01602080910402602001604051908101604052809291908181526020018280546001816001161561010002031660029004801561130e5780601f106112e35761010080835404028352916020019161130e565b820191906000526020600020905b8154815290600101906020018083116112f157829003601f168201915b5050505050815260200160038201548152602001600482018054600181600116156101000203166002900480601f0160208091040260200160405190810160405280929190818152602001828054600181600116156101000203166002900480156113ba5780601f1061138f576101008083540402835291602001916113ba565b820191906000526020600020905b81548152906001019060200180831161139d57829003601f168201915b50505050508152602001600582018054600181600116156101000203166002900480601f01602080910402602001604051908101604052809291908181526020018280546001816001161561010002031660029004801561145c5780601f106114315761010080835404028352916020019161145c565b820191906000526020600020905b81548152906001019060200180831161143f57829003601f168201915b505050505081526020016006820154815260200160078201548152602001600882015481526020016009820160009054906101000a900473ffffffffffffffffffffffffffffffffffffffff1673ffffffffffffffffffffffffffffffffffffffff1673ffffffffffffffffffffffffffffffffffffffff168152602001600a8201548152602001600b8201548152602001600c8201548152602001600d820160009054906101000a900460ff16600281111561151557fe5b600281111561152057fe5b815250509050806101200151816101400151826101600151935093509350509193909250565b600080600160006002600087815260200190815260200160002060009054906101000a900473ffffffffffffffffffffffffffffffffffffffff1673ffffffffffffffffffffffffffffffffffffffff1673ffffffffffffffffffffffffffffffffffffffff16815260200190815260200160002060008581526020019081526020016000209050806006015442101515156115e157600080fd5b806007015442111515156115f457600080fd5b80600801543411151561160657600080fd5b600081600e0160003373ffffffffffffffffffffffffffffffffffffffff1673ffffffffffffffffffffffffffffffffffffffff1681526020019081526020016000206000856000191660001916815260200190815260200160002060000160009054906101000a900473ffffffffffffffffffffffffffffffffffffffff1673ffffffffffffffffffffffffffffffffffffffff161415156116a857600080fd5b6080604051908101604052803373ffffffffffffffffffffffffffffffffffffffff1681526020018581526020013481526020016000151581525081600e0160003373ffffffffffffffffffffffffffffffffffffffff1673ffffffffffffffffffffffffffffffffffffffff1681526020019081526020016000206000856000191660001916815260200190815260200160002060008201518160000160006101000a81548173ffffffffffffffffffffffffffffffffffffffff021916908373ffffffffffffffffffffffffffffffffffffffff160217905550602082015181600101556040820151816002015560608201518160030160006101000a81548160ff021916908315150217905550905050600181600c0160008282540192505081905550600191505092915050565b6000806117e4612024565b60008060016000600260008b815260200190815260200160002060009054906101000a900473ffffffffffffffffffffffffffffffffffffffff1673ffffffffffffffffffffffffffffffffffffffff1673ffffffffffffffffffffffffffffffffffffffff1681526020019081526020016000206000898152602001908152602001600020945084600701544211151561187e57600080fd5b86866040518083805190602001908083835b6020831015156118b55780518252602082019150602081019050602083039250611890565b6001836020036101000a03801982511681845116808217855250505050505090500182805190602001908083835b60208310151561190857805182526020820191506020810190506020830392506118e3565b6001836020036101000a038019825116818451168082178552505050505050905001925050506040518091039020935084600e0160003373ffffffffffffffffffffffffffffffffffffffff1673ffffffffffffffffffffffffffffffffffffffff16815260200190815260200160002060008560001916600019168152602001908152602001600020608060405190810160405290816000820160009054906101000a900473ffffffffffffffffffffffffffffffffffffffff1673ffffffffffffffffffffffffffffffffffffffff1673ffffffffffffffffffffffffffffffffffffffff16815260200160018201548152602001600282015481526020016003820160009054906101000a900460ff16151515158152505092506000836000015173ffffffffffffffffffffffffffffffffffffffff16111515611a4e57600080fd5b6000151583606001511515141515611a6557600080fd5b611a6e87611d09565b90508083604001511015611a885782604001519150611c38565b60008560090160009054906101000a900473ffffffffffffffffffffffffffffffffffffffff1673ffffffffffffffffffffffffffffffffffffffff161415611b3257338560090160006101000a81548173ffffffffffffffffffffffffffffffffffffffff021916908373ffffffffffffffffffffffffffffffffffffffff1602179055508085600a0181905550846008015485600b0181905550808360400151039150611c37565b84600a0154811115611c145784600a015485600b01819055508460090160009054906101000a900473ffffffffffffffffffffffffffffffffffffffff1673ffffffffffffffffffffffffffffffffffffffff166108fc86600a01549081150290604051600060405180830381858888f19350505050158015611bb9573d6000803e3d6000fd5b50338560090160006101000a81548173ffffffffffffffffffffffffffffffffffffffff021916908373ffffffffffffffffffffffffffffffffffffffff1602179055508085600a0181905550808360400151039150611c36565b84600b0154811115611c31578085600b0181905550809150611c35565b8091505b5b5b5b600185600e0160003373ffffffffffffffffffffffffffffffffffffffff1673ffffffffffffffffffffffffffffffffffffffff1681526020019081526020016000206000866000191660001916815260200190815260200160002060030160006101000a81548160ff0219169083151502179055506000821115611cff573373ffffffffffffffffffffffffffffffffffffffff166108fc839081150290604051600060405180830381858888f19350505050158015611cfd573d6000803e3d6000fd5b505b5050505050505050565b6000606060008084925060009150600090505b8251811015611f085760307f0100000000000000000000000000000000000000000000000000000000000000028382815181101515611d5757fe5b9060200101517f010000000000000000000000000000000000000000000000000000000000000090047f0100000000000000000000000000000000000000000000000000000000000000027effffffffffffffffffffffffffffffffffffffffffffffffffffffffffffff191610158015611e6f575060397f0100000000000000000000000000000000000000000000000000000000000000028382815181101515611dff57fe5b9060200101517f010000000000000000000000000000000000000000000000000000000000000090047f0100000000000000000000000000000000000000000000000000000000000000027effffffffffffffffffffffffffffffffffffffffffffffffffffffffffffff191611155b15611efb5760308382815181101515611e8457fe5b9060200101517f010000000000000000000000000000000000000000000000000000000000000090047f0100000000000000000000000000000000000000000000000000000000000000027f0100000000000000000000000000000000000000000000000000000000000000900403600a83020191505b8080600101915050611d1c565b819350505050919050565b6101c060405190810160405280600081526020016060815260200160608152602001600081526020016060815260200160608152602001600081526020016000815260200160008152602001600073ffffffffffffffffffffffffffffffffffffffff16815260200160008152602001600081526020016000815260200160006002811115611f9e57fe5b81525090565b828054600181600116156101000203166002900490600052602060002090601f016020900481019282601f10611fe557805160ff1916838001178555612013565b82800160010185558215612013579182015b82811115612012578251825591602001919060010190611ff7565b5b5090506120209190612065565b5090565b608060405190810160405280600073ffffffffffffffffffffffffffffffffffffffff16815260200160008152602001600081526020016000151581525090565b61208791905b8082111561208357600081600090555060010161206b565b5090565b905600a165627a7a72305820dd17bd8680bc8c1488cc309f81fcf9d9a3c77a513d80934798116eca41c31d670029",
  "source": "pragma solidity ^0.4.13;\n\ncontract Kubay1 {\n\n enum ProductStatus { Open, Sold, Unsold }\n\n\n uint public productIndex;\n mapping (address => mapping(uint => Product)) stores;\n mapping (uint => address) productIdInStore;\n\n\n\nstruct Product {\n  uint id;\n  string game_name;\n  string item_name;\n  uint game_money;\n  string imageLink;\n  string descLink;\n  uint auctionStartTime;\n  uint auctionEndTime;\n  uint startPrice;\n  address highestBidder;\n  uint highestBid;\n  uint secondHighestBid;\n  uint totalBids;\n  ProductStatus status;\n\n   mapping (address => mapping (bytes32 => Bid)) bids;\n }\n\nstruct Bid {\n address bidder;\n uint productId;\n uint value;\n bool revealed;\n}\n\nfunction bid(uint _productId, bytes32 _bid) payable public returns (bool){\nProduct storage product = stores[productIdInStore[_productId]][_productId];\nrequire (now >= product.auctionStartTime);\nrequire (now <= product.auctionEndTime);\nrequire(msg.value > product.startPrice);\nrequire(product.bids[msg.sender][_bid].bidder == 0);\nproduct.bids[msg.sender][_bid]=Bid(msg.sender, _productId, msg.value, false);\nproduct.totalBids +=1;\nreturn true;\n}\n\nfunction revealBid(uint _productId, string _amount, string _secret) public {\nProduct storage product = stores[productIdInStore[_productId]][_productId];\nrequire ( now > product.auctionEndTime);\nbytes32 sealedBid = sha3(_amount, _secret);\n\nBid memory bidInfo = product.bids[msg.sender][sealedBid];\nrequire (bidInfo.bidder > 0);\nrequire (bidInfo.revealed == false);\n\nuint refund;\n\nuint amount = stringToUint(_amount);\n\nif(bidInfo.value < amount){\n  refund = bidInfo.value;\n}\n\nelse {\n\n   if(address(product.highestBidder)==0){\n      product.highestBidder = msg.sender;\n       product.highestBid = amount;\n       product.secondHighestBid=product.startPrice;\n        refund = bidInfo.value - amount;\n      }\n     else {\n\n          if (amount > product.highestBid){\n  product.secondHighestBid = product.highestBid;\n  product.highestBidder.transfer(product.highestBid);\n  product.highestBidder=msg.sender;\n  product.highestBid=amount;\n  refund=bidInfo.value - amount;\n                  }\n          else if (amount > product.secondHighestBid){\n           product.secondHighestBid=amount;\n           refund=amount;\n        }\n         else{\n          refund=amount;\n         }\n\n      }\n\n}\nproduct.bids[msg.sender][sealedBid].revealed=true;\n\n    if(refund >0){\n       msg.sender.transfer(refund);\n    }\n}\n\nfunction highestBidderInfo(uint _productId) view public returns (address, uint, uint){\n Product memory product = stores[productIdInStore[_productId]][_productId];\n return (product.highestBidder, product.highestBid, product.secondHighestBid);\n}\n\nfunction totalBids(uint _productId) view public returns (uint) {\n Product memory product = stores[productIdInStore[_productId]][_productId];\n return product.totalBids;\n}\n\nfunction stringToUint(string s) pure private returns (uint){\nbytes memory b =bytes(s);\nuint result =0;\nfor(uint i =0;i<b.length; i++){\n   if(b[i] >= 48 && b[i] <= 57){\n   result = result * 10 + (uint(b[i])-48);\n   }\n}\n return result;\n}\n\n\nfunction addProductToStore(string _game_name, string _item_name, uint _game_money, string _imageLink, string _descLink, uint _auctionStartTime,\nuint _auctionEndTime, uint _startPrice ) public  {\n   require (_auctionStartTime < _auctionEndTime);\n   productIndex += 1;\n   Product memory product = Product(productIndex, _game_name, _item_name, _game_money, _imageLink, _descLink, _auctionStartTime, _auctionEndTime,\n        _startPrice, 0, 0, 0, 0, ProductStatus.Open);\n   stores[msg.sender][productIndex] = product;\n   productIdInStore[productIndex] = msg.sender;\n\n }\n\nfunction getProduct(uint _productId) view public returns (uint, string, string, uint, string, string, uint, uint, uint, ProductStatus) {\n   Product memory product = stores[productIdInStore[_productId]][_productId];\n   return (product.id, product.game_name, product.item_name, product.game_money, product.imageLink, product.descLink, product.auctionStartTime,\n       product.auctionEndTime, product.startPrice, product.status);\n }\n\n\n\nfunction Kubaystore(){\n  productIndex = 0;\n}\n\n\n\n}\n",
  "sourcePath": "/home/gs/Kubay/contracts/Kubay1.sol",
  "compiler": {
    "name": "solc",
    "version": "0.4.24+commit.e67f0147.Emscripten.clang"
  },
  "schemaVersion": "2.0.1",
  "updatedAt": "2018-06-24T03:11:24.746Z"
}